:020000040800F2
:1000000000000220ED3D010895D20008A3D20008AF
:10001000A9D20008AFD20008B5D200080000000045
:10002000000000000000000000000000BBD200083B
:10003000C9D2000800000000D7D20008E5D20008AD
:100040003D3E01083D3E01083D3E01083D3E0108A0
:100050003D3E01083D3E0108F1D200080FD30008E3
:100060002DD300083D3E01083D3E01084DD3000858
:1000700081D30008B5D30008E9D300081DD40008D7
:1000800051D400083D3E010885D400083D3E0108DA
:100090003D3E01083D3E01083D3E01083D3E010850
:1000A0003D3E01083D3E01083D3E01083D3E010840
:1000B0003D3E01083D3E01083D3E01083D3E010830
:1000C0003D3E01083D3E01083D3E01083D3E010820
:1000D0003D3E01083D3E01083D3E01083D3E010810
:1000E0003D3E01083D3E01083D3E01083D3E010800
:1000F0003D3E01083D3E01083D3E01083D3E0108F0
:100100003D3E01083D3E01083D3E01083D3E0108DF
:10011000C1D400083D3E0108D5D400083D3E010889
:10012000E9D400083D3E01083D3E01083D3E01087E
:100130003D3E01083D3E01081DD500083D3E010839
:100140003D3E01083D3E01083D3E01083D3E01089F
:100150003D3E01083D3E01083D3E01083D3E01088F
:100160003D3E01083D3E01083D3E01083D3E01087F
:100170003D3E01083D3E01083D3E01083D3E01086F
:100180003D3E01083D3E01083D3E01083D3E01085F
:100190003D3E0108000000003D3E01083D3E0108D3
:1001A0003D3E01083D3E01083D3E010859D500088D
:1001B0003D3E01083D3E01083D3E01083D3E01082F
:1001C0003D3E01083D3E01083D3E01083D3E01081F
:0801D0003D3E01083D3E01081F
:1001E00010B5054C237833B9044B13B10448AFF371
:1001F00000800123237010BD940000200000000047
:10020000C450010808B5034B1BB103490348AFF3C1
:10021000008008BD0000000098000020C4500108C4
:1002200001F0FF01102A2BDB10F0070F08D010F8A7
:10023000013B013A8B422DD010F0070F42B3F6D1AB
:10024000F0B441EA012141EA014122F007047FF0C4
:1002500000070023F0E80256083C85EA010586EA1B
:10026000010685FA47F5A3FA87F586FA47F6A5FA57
:1002700087F68EB9EED1F0BC01F0FF0102F0070263
:1002800032B110F8013B013A83EA010313B1F8D10E
:100290000020704701387047002D06BF35460338EF
:1002A000073815F0010F07D1013015F4807F02BF28
:1002B000013015F4C03F0130F0BC0138704700BF79
:1002C00053B94AB9002908BF00281CBF4FF0FF31BD
:1002D0004FF0FF3000F072B9ADF1080C6DE904CEBB
:1002E00000F006F8DDF804E0DDE9022304B0704711
:1002F0002DE9F047089E04468846002B4BD18A42E0
:10030000154667D9B2FA82F24AB1C2F1200701FA62
:1003100002F320FA07F7954047EA030894404FEAB2
:10032000154E230CB8FBFEF71FFA85FC0EFB178851
:1003300043EA084307FB0CF1994209D9EB1807F18E
:10034000FF3080F01B81994240F21881023F2B441C
:100350005B1AA4B2B3FBFEF00EFB103344EA034475
:1003600000FB0CFCA44509D92C1900F1FF3380F0E7
:100370000781A44540F2048102382C4440EA07403A
:10038000A4EB0C0400271EB1D4400023C6E90043AF
:100390003946BDE8F0878B4209D9002E00F0EB808A
:1003A0000027C6E9000138463946BDE8F087B3FAB0
:1003B00083F7002F47D18B4202D3824200F2FA80AA
:1003C000841A61EB030301209846002EE0D0C6E9B1
:1003D0000048DDE702B9FFDEB2FA82F2002A40F0FF
:1003E0008F80491B4FEA154E1FFA85F80127B1FB94
:1003F000FEFC230C0EFB1C1143EA014308FB0CF12D
:10040000994207D9EB180CF1FF3002D2994200F261
:10041000CD808446591AA3B2B1FBFEF00EFB101436
:1004200043EA044408FB00F8A04507D92C1900F161
:10043000FF3302D2A04500F2B6801846A4EB0804B0
:1004400040EA0C409FE7C7F1200CBB4022FA0CFEAB
:100450004EEA030E01FA07F420FA0CF521FA0CF328
:100460004FEA1E482543B3FBF8F92C0C08FB19335F
:100470001FFA8EFA44EA034309FB0AF49C4202FA8B
:1004800007F200FA07F10BD91EEB030309F1FF3065
:1004900080F087809C4240F28480A9F10209734475
:1004A0001B1BADB2B3FBF8F008FB103345EA034465
:1004B00000FB0AFAA24508D91EEB040400F1FF3341
:1004C0006BD2A24569D90238744440EA0940A0FBC6
:1004D0000289A4EB0A044C45C2464B4654D351D082
:1004E000002E69D0B1EB0A0564EB030404FA0CFC9E
:1004F000FD40FC404CEA0505C6E90054002747E7EB
:10050000C2F1200320FA03F7954001FA02F021FA24
:1005100003F34FEA154E3843010CB3FBFEF71FFA05
:1005200085F80EFB173341EA034107FB08F38B42C2
:1005300004FA02F407D9691807F1FF3C2FD28B4265
:100540002DD9023F2944CB1A81B2B3FBFEF00EFB3A
:10055000103341EA034100FB08F38B4207D96918C5
:1005600000F1FF3C17D28B4215D902382944C91A31
:1005700040EA07473BE73746304609E70746E7E6E4
:100580001846FBE64145ABD2B8EB020A69EB0E0216
:1005900001381346A4E76046E9E7184695E7674641
:1005A000D1E781467CE702382C4447E7ACF1020CE6
:1005B0002B442FE7384608E73746E9E6704700BF87
:1005C00080B584B002AFF0233B711AE02B480EF0E7
:1005D000ADFF0346202B03D0294813F02BFF1CE06E
:1005E00026480EF0A3FF0346042B0AD0254813F03B
:1005F00021FF254813F01EFF244813F01BFF0CF0C9
:1006000055FA3A1D4FF47A730093012330211B48A9
:100610000EF0A2FD0346002BD8D117E017480EF0CC
:1006200085FF0346202B03D0154813F003FF19E084
:1006300012480EF07BFF0346042B07D0114813F03D
:10064000F9FE134813F0F6FE0CF030FA3A464FF478
:100650007A7300930123302108480EF071FE03469F
:10066000002BDBD13B7803F0F703102B0CBF0123E9
:100670000023DBB218460837BD4680BD740B00204E
:10068000DC500108FC5001081451010834510108E4
:100690005051010880B586B002AF0346FB71D223EA
:1006A0003B73FB79DB431B015AB297F907301343C5
:1006B0005BB2DBB27B7317E02E480EF037FF0346C8
:1006C000202B03D02C4813F0B5FE1AE029480EF079
:1006D0002DFF0346042B07D0284813F0ABFE284813
:1006E00013F0A8FE0CF0E2F907F10C024FF47A7354
:1006F0000093022330211F480EF02EFD0346002BED
:10070000DAD117E01B480EF011FF0346202B03D06F
:10071000194813F08FFE1AE016480EF007FF034643
:10072000042B07D0154813F085FE164813F082FEFF
:100730000CF0BCF907F108024FF47A73009301231F
:1007400030210C480EF0FCFD0346002BDAD13B7A39
:10075000FA799A4209D0FFF733FF084813F06AFE8E
:10076000094813F067FE002300E001231846103704
:10077000BD4680BD740B0020DC500108705101089B
:1007800014510108505101088C51010880B500AF87
:10079000FFF716FF0346002B01D1002327E0154B7E
:1007A00000221A60144B00221A60144B00221A60B7
:1007B000134B01221A600F4B1B685AB20E4B1B6879
:1007C0005BB213435AB20D4B1B685BB213435AB270
:1007D0000B4B1B685BB213435BB2DBB21846FFF7EF
:1007E00059FF0346002B01D1002300E001231846E6
:1007F00080BD00BF80080020700B0020840A00200C
:100800008808002080B586B002AF78607B68013B25
:10081000062B11D801A252F823F000BF43080008AC
:100820004D08000857080008610800086B08000818
:10083000750800087F080008F023FB73B823BB731A
:1008400022E0E123FB73B123BB731DE0D223FB73D2
:10085000AA23BB7318E0C323FB73A323BB7313E06A
:10086000B423FB739C23BB730EE0A523FB7395237A
:10087000BB7309E09623FB738E23BB7304E08723CD
:10088000FB738723BB7300BFC3233B73FB7B7B736B
:1008900017E02B480EF04AFE0346202B03D02948D0
:1008A00013F0C8FD1AE026480EF040FE0346042B64
:1008B00007D0254813F0BEFD244813F0BBFD0CF013
:1008C000F5F807F10C024FF47A73009302233021FC
:1008D0001B480EF041FC0346002BDAD117E0184804
:1008E0000EF024FE0346202B03D0164813F0A2FD81
:1008F0001AE013480EF01AFE0346042B07D01248E4
:1009000013F098FD124813F095FD0CF0CFF807F1A5
:1009100008024FF47A7300930123302108480EF047
:100920000FFD0346002BDAD13B7ABA7B9A420CBF0B
:1009300001230023DBB218461037BD4680BD00BF3F
:10094000740B0020DC500108A85101081451010863
:100950005051010880B586B002AF0023FB60B4237C
:100960003B7217E054480EF0E1FD0346202B03D004
:10097000524813F05FFD1AE04F480EF0D7FD0346D2
:10098000042B07D04E4813F055FD4E4813F052FD8E
:100990000CF08CF807F108024FF47A7300930123EE
:1009A000302145480EF0D8FB0346002BDAD1464BE8
:1009B0001B68002B1BD1012013F0E2F917E03E4821
:1009C0000EF0B4FD0346202B03D03C4813F032FD5B
:1009D00019E039480EF0AAFD0346042B07D0384829
:1009E00013F028FD394813F025FD0CF05FF83A1D8F
:1009F0004FF47A730093012330212F480EF0A0FCAE
:100A00000346002BDBD13B79FB7217E02A480EF03E
:100A10008DFD0346202B03D0284813F00BFD19E071
:100A200025480EF083FD0346042B07D0244813F01D
:100A300001FD274813F0FEFC0CF038F83A1D4FF486
:100A40007A730093012330211B480EF079FC034692
:100A5000002BDBD13B7903F00103FB72FB7A03F03F
:100A60000103002B04D0FB685A1CFA60042BE5DD5F
:100A7000FB68042B07DD124813F0DCFC154813F06B
:100A8000D9FC002313E0FB7A03F00403002B03D00E
:100A9000114B01221A6002E00F4B00221A60FB7A10
:100AA00003F00203002B01D0012300E000231846CD
:100AB0001037BD4680BD00BF740B0020DC5001081C
:100AC000C85101081451010880080020D8510108BC
:100AD000F8510108185201080C09002080B588B0AF
:100AE00002AF0346FB7100237B61A5233B74FB79B6
:100AF0007B7417E04A480EF019FD0346202B03D003
:100B0000484813F097FC1AE045480EF00FFD0346E5
:100B1000042B07D0444813F08DFC444813F08AFCA2
:100B20000BF0C4FF07F110024FF47A730093022315
:100B300030213B480EF010FB0346002BDAD13C4B32
:100B40001B68002B1BD1012013F01AF917E0344861
:100B50000EF0ECFC0346202B03D0324813F06AFC65
:100B60001AE02F480EF0E2FC0346042B07D02E4873
:100B700013F060FC2F4813F05DFC0BF097FF07F1BA
:100B80000C024FF47A7300930123302124480EF0B5
:100B9000D7FB0346002BDAD13B7BFB7417E02048E0
:100BA0000EF0C4FC0346202B03D01E4813F042FC79
:100BB0001AE01B480EF0BAFC0346042B07D01A4873
:100BC00013F038FC1C4813F035FC0BF06FFF07F1F5
:100BD0000C024FF47A7300930123302110480EF079
:100BE000AFFB0346002BDAD13B7B03F00103FB7420
:100BF000FB7C03F00103002B04D07B695A1C7A6153
:100C0000042BE4DD7B69042B05DD074813F012FC9F
:100C10000A4813F00FFC00BF1837BD4680BD00BF67
:100C2000740B0020DC5001083452010814510108F3
:100C300080080020D8510108F85101081852010815
:100C400080B586B002AF0023FB6096233B7217E0AD
:100C500073480EF06BFC0346202B03D0714813F051
:100C6000E9FB1AE06E480EF061FC0346042B07D046
:100C70006D4813F0DFFB6D4813F0DCFB0BF016FF43
:100C800007F108024FF47A7300930123302164487E
:100C90000EF062FA0346002BDAD1654B1B68002B7D
:100CA0001BD1012013F06CF817E05D480EF03EFCFC
:100CB0000346202B03D05B4813F0BCFB19E05848D7
:100CC0000EF034FC0346042B07D0574813F0B2FB58
:100CD000584813F0AFFB0BF0E9FE3A1D4FF47A735E
:100CE0000093012330214E480EF02AFB0346002BCF
:100CF000DBD13B79FB7217E049480EF017FC034645
:100D0000202B03D0474813F095FB19E044480EF020
:100D10000DFC0346042B07D0434813F08BFB4648D9
:100D200013F088FB0BF0C2FE3A1D4FF47A73009368
:100D3000012330213A480EF003FB0346002BDBD1A0
:100D40003B7903F00103FB72FB7A03F00103002BF4
:100D500004D0FB685A1CFA60042BE5DDFB68042B09
:100D600007DD314813F066FB344813F063FB0023C2
:100D700051E0E1233B72E1237B7217E028480EF03B
:100D8000D5FB0346202B03D0264813F053FB1AE073
:100D900023480EF0CBFB0346042B07D0224813F068
:100DA00049FB274813F046FB0BF080FE07F10802D1
:100DB0004FF47A7300930223302119480EF0CCF9D6
:100DC0000346002BDAD117E015480EF0AFFB0346BF
:100DD000202B03D0134813F02DFB19E010480EF020
:100DE000A5FB0346042B07D00F4813F023FB15483F
:100DF00013F020FB0BF05AFE3A1D4FF47A73009368
:100E00000123302106480EF09BFA0346002BDBD16C
:100E10003B79BB72BB7A18461037BD4680BD00BF18
:100E2000740B0020DC500108485201085C52010894
:100E300080080020D8510108F85101081852010813
:100E400080520108A452010890B58DB000AF03464E
:100E50003960FB71FB79012B08D98B4B1B78002B78
:100E600002D08A4813F0E6FA002308E107F11803DC
:100E700000221A605A609A60DA6007F108030022C3
:100E80001A605A609A60DA603B6807F118041868C3
:100E900059689A68DB680FC47D4A7E497E4804F031
:100EA000D7F907F1080207F1180110237A4804F076
:100EB000E9FFFB791846FFF7A5FCFFF74BFDCC20B7
:100EC000FFF70CFE0F20FFF709FE0020FFF706FEDC
:100ED0000020FFF703FE002387F82F300EE097F87D
:100EE0002F3007F13002134413F8283C1846FFF75F
:100EF000F5FD97F82F30013387F82F3097F82F3012
:100F0000072BECD9FFF79CFE034687F82E30FFF73E
:100F100097FE034687F82E30FFF71CFDCC20FFF725
:100F2000DDFDAA20FFF7DAFDFFF78AFE034687F80A
:100F30002D30FFF785FE034687F82C30FFF780FE43
:100F4000034687F82B30FFF705FDCC20FFF7C6FDE1
:100F50005520FFF7C3FD97F82D301846FFF7BEFD6B
:100F600097F82C301846FFF7B9FD97F82B30184644
:100F7000FFF7B4FD0F2012F003FFFFF761FE0346F9
:100F800087F82E30404B1B78002B05D097F82E3079
:100F90001946424813F0C6F9FFF7DCFCCC20FFF7F6
:100FA0009DFD0F20FFF79AFD0820FFF797FD002019
:100FB000FFF794FD002387F82F300FE097F82F30CC
:100FC000083307F13002134413F8283C1846FFF7A2
:100FD00085FD97F82F30013387F82F3097F82F30A1
:100FE000072BEBD9FFF72CFE034687F82E30FFF7CF
:100FF00027FE034687F82E30FFF7ACFCCC20FFF726
:101000006DFDAA20FFF76AFDFFF71AFE034687F879
:101010002D30FFF715FE034687F82C30FFF710FE42
:10102000034687F82B30FFF795FCCC20FFF756FDE1
:101030005520FFF753FD97F82D301846FFF74EFD6A
:1010400097F82C301846FFF749FD97F82B301846D3
:10105000FFF744FD0F2012F093FEFFF7F1FD03466A
:1010600087F82E30084B1B78002B05D097F82E30D0
:1010700019460B4813F056F9FFF76CFC012318468C
:101080003437BD4690BD00BFA60A0020C4520108F7
:10109000100000200000002058090020F052010834
:1010A0000053010890B585B000AF0346FB71FB7992
:1010B000012B0BD9334B1B78002B02D0324813F095
:1010C000B9F9324B00221A70002357E00023BB739A
:1010D000FB791846FFF796FBFFF73CFCCC20FFF7A7
:1010E000FDFCF020FFF7FAFC0020FFF7F7FC0020E2
:1010F000FFF7F4FC0023FB7311E0FC7BFFF7A0FD7E
:1011000003461A46224B1A55FB7B214AD35CFF2B20
:1011100002D1BB7B0133BB73FB7B0133FB73FB7BD6
:101120000F2BEAD9FFF716FCBB7B0F2B0BD9154B06
:101130001B78002B02D0174813F07CF9134B0022C8
:101140001A7000231AE0144A1449154804F080F874
:1011500010220F49124804F0C6FE0D4B1B78E02BFD
:101160000BD0084B1B78002B02D00E4813F062F90D
:10117000064B00221A70002300E0054B1846143776
:10118000BD4690BDA60A0020105301082209002088
:10119000B00000203853010810000020000000209B
:1011A000580900205853010880B483B000AF78601C
:1011B000054B1A6804497B6813430B6000BF0C376A
:1011C000BD465DF8047B70470004014080B483B0E5
:1011D00000AF7860064B1A687B68DB430449134014
:1011E0000B6000BF0C37BD465DF8047B704700BF45
:1011F0000004014080B483B000AF78607B689B68D6
:1012000003F08003802B01D1012300E00023184666
:101210000C37BD465DF8047B704780B485B000AFE5
:1012200078600B46FB707B680C33FB60FB68FA78D8
:101230001A7000BF1437BD465DF8047B704780B458
:1012400083B000AF786039607B683A689A6100BF0C
:101250000C37BD465DF8047B704780B483B000AFA7
:10126000786039607B683A689A6200BF0C37BD4687
:101270005DF8047B7047000080B584B000AF7860F3
:1012800040211648FFF7E9FF7B681B0AFB73FB7BD5
:1012900043F07003FB737B68BB73FB7B19461048FC
:1012A000FFF7BBFF00BF0E48FFF7A4FF0346002B6C
:1012B000F9D1BB7B19460A48FFF7AFFF00BF0848CA
:1012C000FFF798FF0346002BF9D140210348FFF7B1
:1012D000B6FF00BF1037BD4680BD00BF0004004808
:1012E0000030014080B584B000AF786040211648DE
:1012F000FFF7B3FF7B681B0AFB73FB7B63F00F03F5
:10130000FB737B68BB73FB7B19461048FFF785FFB7
:1013100000BF0E48FFF76EFF0346002BF9D1BB7BE1
:1013200019460A48FFF779FF00BF0848FFF762FF38
:101330000346002BF9D140210348FFF780FF00BF8F
:101340001037BD4680BD00BF00040048003001409A
:1013500080B487B000AF786000237B6100233B61DD
:101360000023FB607B68002B27D07B68962B24D85A
:10137000154B1A687B684EF6602101FB03F3B2FB44
:10138000F3F3013B7B61114A7B6993624EF65F2365
:101390003B610E4A3B69D3623B6901335A004FF40B
:1013A0007A717B68B1FBF3F3B2FBF3F3FB60074A9E
:1013B000FB685363054B00225A6200BF1C37BD46D1
:1013C0005DF8047B704700BF24000020002C014022
:1013D00080B500AF0120FFF7E7FE00BF80BD000031
:1013E00080B500AF0120FFF7F1FE4FF480610248A5
:1013F000FFF725FF00BF80BD0010004880B487B014
:1014000000AF786000237B6100233B610023FB6019
:101410007B68002B27D07B68962B24D8154B1A6845
:101420007B684EF6602101FB03F3B2FBF3F3013B53
:101430007B61114A7B6993624EF65F233B610E4AE2
:101440003B69D3623B6901335A004FF47A717B6880
:10145000B1FBF3F3B2FBF3F3FB60074AFB685363A2
:10146000054B00225A6200BF1C37BD465DF8047B65
:10147000704700BF240000200034014080B500AF59
:101480000220FFF791FE00BF80BD000080B500AFD5
:101490000220FFF79BFE80210248FFF7D0FE00BF2D
:1014A00080BD00BF0008004880B483B000AF786002
:1014B00039607B681A693B6813403A689A4201D1E7
:1014C000012300E0002318460C37BD465DF8047B7D
:1014D000704780B483B000AF786039607B683A6849
:1014E0009A6100BF0C37BD465DF8047B704780B43D
:1014F00083B000AF786039607B683A689A6200BF59
:101500000C37BD465DF8047B7047000080B582B0A3
:1015100000AF78607B681B68914A934240F0C886B0
:10152000904B1B78DBB2012B40F076838E4B1B78FF
:10153000002B00F038818D4B1B6801338B4A136000
:101540008B4B93F82030032B05D0894B93F8203038
:10155000042B40F08D80864BDB791A464FF4FA73EA
:1015600003FB02F31A46814B1B689A4212D1804B4F
:101570001B7A002B0ED07E4B9A787D4B5B789A427B
:1015800076D07B4B9B781846FFF7E2FE794B022220
:101590001A706DE0764BDB791A46754B1B7A134453
:1015A0004FF4FA7202FB03F31A46704B1B689A421F
:1015B00012D16F4B5B7A002B0ED06D4BDA786C4BEF
:1015C0009B789A4254D06A4BDB781846FFF7C0FEEE
:1015D000684B03221A704BE0654BDB791A46644B6B
:1015E0001B7A1344624A527A13444FF4FA7202FB94
:1015F00003F31A465D4B1B689A4212D15C4B9B7AEF
:10160000002B0ED05A4B1A79594BDB789A422FD0C7
:10161000574B1B791846FFF79BFE564B04221A7056
:1016200026E0534BDB791A46514B1B7A1344504A40
:10163000527A13444E4A927A13444FF4FA7202FBE0
:1016400003F31A46494B1B689A4211D1484BDB7A87
:10165000002B0DD0464B5A79454B1B799A4207D047
:10166000434B5B791846FFF773FE424B05221A7015
:101670003F4B1B7B1A464FF4FA7303FB02F31A46E7
:101680003A4B1B689A4200F28E80394B1B78002B34
:1016900000F08980354B00221A60334B00221A700B
:1016A000354B00221A60354B01221A70304B93F8EB
:1016B0002030032B04D02E4B93F82030042B72D112
:1016C0002C4B1B78DBB2012B0ED1294B1A78284BFF
:1016D0005B789A4204D0264B1B781846FFF738FEF9
:1016E000244B00221A705EE0224B1B78DBB2022BE7
:1016F0000ED11F4B1A781E4B9B789A4204D01C4B7C
:101700001B781846FFF724FE1A4B00221A704AE095
:10171000184B1B78DBB2032B0ED1154B1A78144BE8
:10172000DB789A4204D0124B1B781846FFF710FE64
:10173000104B00221A7036E00E4B1B78DBB2042BE4
:101740001ED10B4B1A780A4B1B799A4204D0084BD6
:101750001B781846FFF7FCFD064B00221A7022E0AA
:10176000001000409D0A00200E080020200B0020E1
:10177000600A0020090900200C0B0020D00A00207C
:10178000794B1B78DBB2052B0DD1784B1A78774B50
:101790005B799A4204D0754B1B781846FFF7D8FD49
:1017A000714B00221A70724B1B78002B5FD0714B6B
:1017B0001B6801336F4A13606C4B9B7B1A464FF4D6
:1017C000FA7303FB02F31A466A4B1B689A424ED81F
:1017D000664B1B78002B4AD0674B1B78002B2ED012
:1017E000654B00221A70614B5B69604A13615F4B65
:1017F0001B6940F2465293420AD95C4B1B69A3F223
:1018000046525E4B1B68B2FBF3F35D4A136002E085
:101810005B4B00221A60554B1B6940F246529342C3
:101820000AD9524B1B69A3F24652564B1B68B2FBB6
:10183000F3F3554A136002E0534B00221A604D4BFC
:1018400000221A604A4B00221A70504B00221A6084
:101850004F4B01221A70FFF7BBFD4E4B1B78DBB2DA
:10186000002B04D04B4B00221A70FFF707FE4A4BA7
:101870001B78002B00F04681484B1B680133474A18
:1018800013603A4B93F82030032B05D0374B93F875
:101890002030042B40F0AD80344BDB791A464FF4F6
:1018A000FA7303FB02F31A463C4B1B689A4213D1AE
:1018B0002E4B1B7A002B0FD02C4B9A782B4B5B783E
:1018C0009A4200F09680294B9B781846FFF796FDC8
:1018D000334B02221A708CE0244BDB791A46234BDF
:1018E0001B7A13444FF4FA7202FB03F31A462B4B94
:1018F0001B689A4212D11D4B5B7A002B0ED01B4BFA
:10190000DA781A4B9B789A4273D0184BDB781846DA
:10191000FFF774FD224B03221A706AE0134BDB7948
:101920001A46124B1B7A1344104A527A13444FF44E
:10193000FA7202FB03F31A46184B1B689A4231D124
:101940000A4B9B7A002B2DD0084B1A79074BDB787A
:101950009A424ED0054B1B791846FFF74FFD104BAE
:1019600004221A7045E000BF09090020600A002027
:10197000A70A0020D40A0020890A00208408002039
:10198000980A0020600B0020300A0020540A002032
:10199000AE080020050B00208C0800204409002020
:1019A0000D0800208C4BDB791A468B4B1B7A1344B5
:1019B000894A527A1344884A927A13444FF4FA724D
:1019C00002FB03F31A46854B1B689A4211D1824BE6
:1019D000DB7A002B0DD0804B5A797F4B1B799A42D2
:1019E00007D07D4B5B791846FFF708FD7C4B05223D
:1019F0001A70794B1B7B1A464FF4FA7303FB02F300
:101A00001A46764B1B689A427CD8734B1B78002B86
:101A100078D0724B00221A60724B00221A70724BFF
:101A200000221A60714B01221A706B4B93F8203020
:101A3000032B04D0684B93F82030042B62D1684B01
:101A40001B78DBB2012B0ED1634B1A78624B5B78AB
:101A50009A4204D0604B1B781846FFF7CFFC604BCE
:101A600000221A704EE05E4B1B78DBB2022B0ED1C7
:101A7000594B1A78584B9B789A4204D0564B1B7896
:101A80001846FFF7BBFC564B00221A703AE0544B45
:101A90001B78DBB2032B0ED14F4B1A784E4BDB7801
:101AA0009A4204D04C4B1B781846FFF7A7FC4C4BCE
:101AB00000221A7026E04A4B1B78DBB2042B0ED1B1
:101AC000454B1A78444B1B799A4204D0424B1B7801
:101AD0001846FFF793FC424B00221A7012E0404B6D
:101AE0001B78DBB2052B0DD13B4B1A783A4B5B7957
:101AF0009A4204D0384B1B781846FFF77FFC384BCE
:101B000000221A703A4B1B78002B00F0D183394B1E
:101B10001B680133374A13602F4B9B7B1A464FF4E7
:101B2000FA7303FB02F31A46324B1B689A4200F227
:101B3000BF83294B1B78002B00F0BA832E4B1B78F8
:101B4000002B2ED02C4B00221A70234BDB69224A2B
:101B50009361214B9B6940F2465293420AD91E4B36
:101B60009B69A3F24652254B1B68B2FBF3F3244A50
:101B7000136002E0224B00221A60174B9B6940F26F
:101B8000465293420AD9144B9B69A3F246521D4B0D
:101B90001B68B2FBF3F31C4A136002E01A4B0022ED
:101BA0001A60144B00221A60114B00221A70174B56
:101BB00000221A60164B01221A70FFF75FFC154BCA
:101BC0001B78DBB2002B00F07383124B00221A70DB
:101BD000FFF7FEFB6CE300BF600A00204409002011
:101BE0000D0800208C080020080B0020100B00209E
:101BF0002309002048090020F60A0020840800205C
:101C0000140B0020600B0020940A002050090020D3
:101C1000A40A0020050B00208C4B1B78002B00F041
:101C200034818B4B1B680133894A1360894B93F8CD
:101C30002030032B05D0874B93F82030042B40F045
:101C40008D80844BDB791A464FF4FA7303FB02F361
:101C50001A467F4B1B689A4212D17E4B1B7A002B8F
:101C60000ED07C4B9A787B4B5B789A4276D0794B3E
:101C70009B781846FFF7C2FB774B02221A706DE083
:101C8000744BDB791A46734B1B7A13444FF4FA7288
:101C900002FB03F31A466E4B1B689A4212D16D4B3E
:101CA0005B7A002B0ED06B4BDA786A4B9B789A42AA
:101CB00054D0684BDB781846FFF7A0FB664B032235
:101CC0001A704BE0634BDB791A46624B1B7A134464
:101CD000604A527A13444FF4FA7202FB03F31A4635
:101CE0005B4B1B689A4212D15A4B9B7A002B0ED049
:101CF000584B1A79574BDB789A422FD0554B1B79AA
:101D00001846FFF77BFB544B04221A7026E0514B18
:101D1000DB791A464F4B1B7A13444E4A527A1344CE
:101D20004C4A927A13444FF4FA7202FB03F31A46B8
:101D3000474B1B689A4211D1464BDB7A002B0DD0E2
:101D4000444B5A79434B1B799A4207D0414B5B79FC
:101D50001846FFF753FB404B05221A703D4B1B7B87
:101D60001A464FF4FA7303FB02F31A46384B1B680A
:101D70009A4200F28A80374B1B78002B00F0858056
:101D8000334B00221A60314B00221A70334B002271
:101D90001A60334B01221A702E4B93F82030032B1C
:101DA00004D02C4B93F82030042B6ED12A4B1B7897
:101DB000DBB2012B0ED1274B1A78264B5B789A4267
:101DC00004D0244B1B781846FFF718FB224B002247
:101DD0001A705AE0204B1B78DBB2022B0ED11D4B40
:101DE0001A781C4B9B789A4204D01A4B1B781846E1
:101DF000FFF704FB184B00221A7046E0164B1B78C5
:101E0000DBB2032B0ED1134B1A78124BDB789A42BC
:101E100004D0104B1B781846FFF7F0FA0E4B002247
:101E20001A7032E00C4B1B78DBB2042B1AD1094B31
:101E30001A78084B1B799A4204D0064B1B78184637
:101E4000FFF7DCFA044B00221A701EE08C08002019
:101E500044090020600A00200D080020080B002023
:101E6000100B0020794B1B78DBB2052B0DD1784B82
:101E70001A78774B5B799A4204D0754B1B781846D9
:101E8000FFF7BCFA714B00221A70724B1B78002BC3
:101E90005FD0714B1B6801336F4A13606C4B9B7BA7
:101EA0001A464FF4FA7303FB02F31A466A4B1B6897
:101EB0009A424ED8664B1B78002B4AD0674B1B7852
:101EC000002B2ED0654B00221A70614BDB69604AF3
:101ED00093615F4B9B6940F2465293420AD95C4B37
:101EE0009B69A3F246525E4B1B68B2FBF3F35D4A5B
:101EF000136002E05B4B00221A60554B9B6940F275
:101F0000465293420AD9524B9B69A3F24652564B12
:101F10001B68B2FBF3F3554A136002E0534B0022F7
:101F20001A604D4B00221A604A4B00221A70504B27
:101F300000221A604F4B01221A70FFF79FFA4E4B96
:101F40001B78DBB2002B04D04B4B00221A70FFF73A
:101F50003FFA4A4B1B78002B00F04681484B1B6828
:101F60000133474A13603A4B93F82030032B05D0D6
:101F7000374B93F82030042B40F0AD80344BDB79A5
:101F80001A464FF4FA7303FB02F31A463C4B1B68E4
:101F90009A4213D12E4B1B7A002B0FD02C4B9A78E0
:101FA0002B4B5B789A4200F09680294B9B78184621
:101FB000FFF7CEF9334B02221A708CE0244BDB7909
:101FC0001A46234B1B7A13444FF4FA7202FB03F3B5
:101FD0001A462B4B1B689A4212D11D4B5B7A002B81
:101FE0000ED01B4BDA781A4B9B789A4273D0184B61
:101FF000DB781846FFF7ACF9224B03221A706AE02F
:10200000134BDB791A46124B1B7A1344104A527A4F
:1020100013444FF4FA7202FB03F31A46184B1B6881
:102020009A4231D10A4B9B7A002B2DD0084B1A795A
:10203000074BDB789A424ED0054B1B791846FFF7C9
:1020400087F9104B04221A7045E000BF0D080020EC
:10205000600A00202309002048090020F60A002019
:1020600084080020140B0020600B0020940A00203C
:1020700050090020A40A0020050B00200E080020B3
:10208000200B0020090900208B4BDB791A468A4B74
:102090001B7A1344884A527A1344874A927A13442B
:1020A0004FF4FA7202FB03F31A46844B1B689A4200
:1020B00011D1814BDB7A002B0DD07F4B5A797E4BAF
:1020C0001B799A4207D07C4B5B791846FFF740F9A1
:1020D0007B4B05221A70784B1B7B1A464FF4FA7320
:1020E00003FB02F31A46754B1B689A427CD8724B6D
:1020F0001B78002B78D0714B00221A60714B0022A4
:102100001A70714B00221A60704B01221A706A4BD0
:1021100093F82030032B04D0674B93F82030042B26
:1021200062D1674B1B78DBB2012B0ED1624B1A7860
:10213000614B5B789A4204D05F4B1B781846FFF7DF
:1021400007F95F4B00221A704EE05D4B1B78DBB243
:10215000022B0ED1584B1A78574B9B789A4204D0D9
:10216000554B1B781846FFF7F3F8554B00221A70B1
:102170003AE0534B1B78DBB2032B0ED14E4B1A784F
:102180004D4BDB789A4204D04B4B1B781846FFF737
:10219000DFF84B4B00221A7026E0494B1B78DBB26C
:1021A000042B0ED1444B1A78434B1B799A4204D02E
:1021B000414B1B781846FFF7CBF8414B00221A70B1
:1021C00012E03F4B1B78DBB2052B0DD13A4B1A784E
:1021D000394B5B799A4204D0374B1B781846FFF78E
:1021E000B7F8374B00221A70394B1B78002B5FD0A1
:1021F000384B1B680133374A13602F4B9B7B1A46C1
:102200004FF4FA7303FB02F31A46324B1B689A42EF
:102210004ED8294B1B78002B4AD02F4B1B78002B14
:102220002ED02D4B00221A70234B5B69224A13617A
:10223000214B1B6940F2465293420AD91E4B1B693F
:10224000A3F24652254B1B68B2FBF3F3244A1360FA
:1022500002E0234B00221A60174B1B6940F24652E2
:1022600093420AD9144B1B69A3F246521D4B1B68BB
:10227000B2FBF3F31C4A136002E01B4B00221A600E
:10228000144B00221A60124B00221A70174B0022C6
:102290001A60174B01221A70FFF79AF8154B1B783A
:1022A000DBB2002B04D0134B00221A70FFF7E6F8C4
:1022B00000BF0837BD4680BD600A0020200B00200B
:1022C000090900200E0800200C0B0020D00A002075
:1022D000A70A0020D40A0020890A002084080020D0
:1022E000980A0020600B0020300A0020540A0020C9
:1022F000AE080020050B002080B500AF964B1A6891
:10230000964B1B681344944A1360934B1B6843F627
:102310009722934205D9904B00221A60904B0122DC
:102320001A70904B1B6801338E4A13608D4B1B68EB
:10233000B3F5F97F17D98B4B00221A608A4B1B78B3
:10234000002B08D0884B00221A704FF48051874828
:10235000FFF7CDF807E0844B01221A704FF480514B
:102360008248FFF7B6F8824B1B78002B14D0814BC4
:102370001B78002B10D1804B1B6801337E4A136001
:102380007D4B1B687D4A934209D97D4B01221A700F
:10239000794B7A4A1A6002E0774B00221A60794B37
:1023A0001B78002B1CD0784B1B680133764A1360D6
:1023B000754B1B68B3F5C87F12D3734B00221A60AC
:1023C00004217248FFF770F80346002B04D0042163
:1023D0006E48FFF78CF803E004216C48FFF779F8AA
:1023E0006B4B1B78002B1BD06A4B1B680133694A6F
:1023F0001360684B1B68632B12D9664B00221A606E
:1024000004216248FFF750F80346002B04D0042152
:102410005E48FFF76CF803E004215C48FFF759F8C9
:102420005D4B1B6801335C4A13605B4B1B68002BE0
:1024300005D0594B00221A60584B01221A70584B94
:102440001B78002B0ED04FF480515648FFF72CF824
:102450000346002B20D0524B00221A70524B002210
:102460001A6119E04FF480514E48FFF71DF80346FA
:10247000002B0ED14C4B1B6901334B4A13614A4B65
:102480001B69B3F5C87F07D9474B4FF4C8721A616F
:1024900002E0454B00221A614FF480514FF090400A
:1024A000FFF702F80346002B0CD03F4B9B6801332B
:1024B0003D4A93603C4B9B680A2B09D93A4B0A2250
:1024C0009A6005E0394B00221A70374B00229A605F
:1024D0004FF480612548FEF7E7FF0346002B0CD13F
:1024E000314B5B6A0133304A53622F4B5B6AC82B16
:1024F00006D92D4BC8225A6202E02B4B00225A62A9
:102500004FF400611948FEF7CFFF0346002B0CD1B2
:10251000254B9B6A0133244A9362234B9B6AC82B49
:1025200006D9214BC8229A6202E01F4B00229A6210
:1025300008211648FEF7B8FF0346002B38D11A4B86
:102540001B680133184A1360174B1B68C82B32D91C
:10255000154BC8221A602EE00C0F00202C00002022
:10256000120B002038080020340A0020000C00481C
:10257000A90A002008080020200A0020F0490200D3
:10258000A4080020A50A0020180A0020000800481E
:10259000130B0020F80A00203C0900208C0A0020C0
:1025A000F50A002000040048B80800202C0A00208A
:1025B000274B00221A6010212648FEF775FF0346BC
:1025C000002B0CD1224B5B680133214A5360204B16
:1025D0005B68C82B06D91E4BC8225A6002E01C4B10
:1025E00000225A6001211C48FEF75EFF0346002BC3
:1025F0000ED0174BDB680133154AD360144BDB68F0
:10260000B3F57A7F13D9124B4FF47A72DA600EE089
:102610000F4B0022DA60114B1B7803F04003DBB252
:10262000002B04D00D4A13786FF386131370084BF8
:102630009B690133064A9361054B9B69B3F5FA7FA9
:1026400003D9034B4FF4FA729A6100BF80BD00BFFB
:10265000B808002000080048000C0048380A002094
:1026600080B485B000AF786039607B68FB600C4A4D
:102670003B6813441B781A46FB6813441B680849DF
:102680003A680A4412781146FA680A4443F0010392
:10269000136000BF1437BD465DF8047B704700BF70
:1026A000105E010880B485B000AF786039607B6847
:1026B000FB600C4A3B6813441B781A46FB681344C2
:1026C0001B6808493A680A4412781146FA680A44B5
:1026D00023F00103136000BF1437BD465DF8047B8F
:1026E000704700BF105E010880B487B000AFF8608B
:1026F000B9607A60FB687B610D4ABB6813441B7844
:102700001A467B6913445B681B0C1B040849BA68B2
:102710000A44127811467A690A4411467A681343CA
:102720004B6000BF1C37BD465DF8047B704700BF9F
:10273000105E010880B483B000AF78607B689B684E
:1027400043F080027B689A6000BF0C37BD465DF89D
:10275000047B704780B483B000AF78600B46FB7099
:10276000FA787B689A6200BF0C37BD465DF8047B3F
:10277000704780B483B000AF786039607B681A69B5
:102780003B6813403A689A4201D1012300E00023DC
:1027900018460C37BD465DF8047B704780B483B0A3
:1027A00000AF786039607B683A689A6100BF0C3787
:1027B000BD465DF8047B704780B483B000AF78609D
:1027C00039607B683A689A6200BF0C37BD465DF895
:1027D000047B704780B485B000AF78600B46FB7017
:1027E0000023FB730023BB7309E0BB7B7A681344AF
:1027F0001A78FB7B5340FB73BB7B0133BB73BA7B03
:10280000FB789A42F1D3FB7B18461437BD465DF83E
:10281000047B704780B500AF094B00221A70094B4A
:102820001B781A4601210848FFF75EFF0748FFF7AB
:1028300081FF01210448FFF713FF00BF80BD00BFE7
:1028400020000020340B002000000240003801402E
:1028500080B500AF01210948FFF724FF1E220021A7
:10286000074811F0AEFC1E220021064811F0A9FC19
:10287000054B01221A7000BF80BD00BF000002405E
:1028800060080020140800202000002080B485B0DB
:1028900000AF786039600023FB730023BB733AE01C
:1028A000BB7B7A6813441B78022B0BD0BB7B7A6806
:1028B00013441B78032B05D0BB7B7A6813441B7829
:1028C000102B1BD1BB7B012B10D9FB7B194A10218C
:1028D000D154FB7B0133FB73BB7B7A6813441A78BA
:1028E000FB7B4032D1B2134AD1540EE0BB7B7A68F5
:1028F0001A44FB7B11780F4AD15406E0BB7B7A68FF
:102900001A44FB7B11780B4AD154BB7B0133BB7358
:10291000FB7B0133FB733B685A1E3A60002BBFD12F
:10292000054AFB7B137000BF1437BD465DF8047B7E
:10293000704700BF60080020340B002090B585B0C0
:1029400000AF03460A46FB711346BB710023FB73BD
:102950003F4B00221A703E4B1B785A1CD1B23C4AA6
:1029600011701A463B4B02219954394B1B785A1C63
:10297000D1B2374A11701A46364B67219954344BFD
:102980001B785A1CD1B2324A11701A46324B197850
:10299000304B99542E4B1B785A1CD1B22C4A1170D3
:1029A0001A462C4B00219954294B1B785A1CD1B242
:1029B000274A11701A46274B02219954244B1B7841
:1029C0005A1CD1B2224A11701946224AFB7953543B
:1029D0001F4B1B785A1CD1B21D4A117019461D4A53
:1029E000BB7953541D4B1B78DBB2002B28D0184BFE
:1029F0001B7819461748FFF749FF194B1B785A1CDB
:102A0000D1B2174A11701A46164B03219954144B30
:102A10001B78FB73124B1B785A1CD1B2104A1170F1
:102A20001C46FB7B19460F48FFF7D4FE03461A46A7
:102A30000C4B1A550C4B00221A70FFF7EBFE02E00C
:102A40000A4811F0F7FC00BF1437BD4690BD00BF27
:102A5000040B002014080020D80A002020000020C9
:102A6000340B002060080020250A00207453010860
:102A700090B585B000AF0346FB710023FB734A4B52
:102A800000221A70484B1B785A1CD1B2464A11706A
:102A90001A46464B02219954434B1B785A1CD1B21B
:102AA000414A11701A46414B672199543E4B1B789D
:102AB0005A1CD1B23C4A11701A463D4B19783B4B17
:102AC0009954394B1B785A1CD1B2374A11701A46A7
:102AD000364B00219954344B1B785A1CD1B2324AE0
:102AE00011701A46314B042199542F4B1B785A1CF4
:102AF000D1B22D4A11701A462C4B4D2199542A4BB4
:102B00001B785A1CD1B2284A11701A46284B5978A2
:102B1000264B9954244B1B785A1CD1B2224A11706F
:102B20001A46244B1978214B99541F4B1B785A1C79
:102B3000D1B21D4A117019461C4AFB7953541E4BE1
:102B40001B78DBB2002B28D0174B1B78194617488F
:102B5000FFF79CFE194B1B785A1CD1B2174A117013
:102B60001A46174B03219954144B1B78FB73134BD4
:102B70001B785A1CD1B2114A11701C46FB7B1946B6
:102B80000F48FFF727FE03461A460D4B1A550D4B0B
:102B900000221A70FFF73EFE02E00B4811F04AFCDB
:102BA00000BF1437BD4690BD040B00201408002060
:102BB000D80A00202809002020000020340B002023
:102BC00060080020250A00208853010890B585B0D0
:102BD00000AF78600023FB72694B00221A70684BCB
:102BE0001B785A1CD1B2664A11701A46654B0221F5
:102BF0009954634B1B785A1CD1B2614A11701A4622
:102C0000604B672199545E4B1B785A1CD1B25C4AC9
:102C100011701A465C4B19785A4B9954584B1B78D3
:102C20005A1CD1B2564A11701A46564B002199547B
:102C3000564BDA78524B1B78591CC8B25049087071
:102C40001946D31DDAB24F4B5A544D4B1B785A1CC0
:102C5000D1B24B4A11701A464A4B4D219954484BF8
:102C60001B785A1CD1B2464A11701A46464B597805
:102C7000444B9954424B1B785A1CD1B2404A1170B4
:102C80001A46424B19783F4B99543D4B1B785A1CBE
:102C9000D1B23B4A11701A463A4B02219954384B33
:102CA0001B785A1CD1B2364A11701A467B68597883
:102CB000344B9954324B1B785A1CD1B2304A1170A4
:102CC0001A467B6899782F4B99542D4B1B785A1CC8
:102CD000D1B22B4A11701A467B68D978294B995486
:102CE0000023FB6010E0FB6804337A681A44244B2D
:102CF0001B78591CC8B22249087019461278214B1A
:102D00005A54FB680133FB60204BDB781A46FB68A2
:102D10009342E8DB1E4B1B78DBB2002B28D0184B0C
:102D20001B7819461748FFF7B1FD1A4B1B785A1C40
:102D3000D1B2184A11701A46174B03219954154BFA
:102D40001B78FB72134B1B785A1CD1B2114A1170BD
:102D50001C46FB7A19461048FFF73CFD03461A460D
:102D60000D4B1A550D4B00221A70FFF753FD02E070
:102D70000B4811F05FFB00BF1437BD4690BD00BF8C
:102D8000040B002014080020D80A00202809002085
:102D900020000020340B002060080020250A0020BD
:102DA0009C53010890B585B000AF0346FB800B46ED
:102DB000BB801346FB700023FB735D4B00221A702F
:102DC0005B4B1B785A1CD1B2594A11701A46594BA9
:102DD00002219954564B1B785A1CD1B2544A117097
:102DE0001A46544B67219954514B1B785A1CD1B247
:102DF0004F4A11701A46504B19784E4B99544C4B10
:102E00001B785A1CD1B24A4A11701A46494B00210C
:102E10009954474B1B785A1CD1B2454A11701A4637
:102E2000444B07219954424B1B785A1CD1B2404A5B
:102E300011701A463F4B542199543D4B1B785A1C34
:102E4000D1B23B4A11701A463B4B5978394B9954D1
:102E5000374B1B785A1CD1B2354A11701A46FB8881
:102E6000D9B2344B9954FB881B0A99B2304B1B786A
:102E70005A1CD0B22E4A10701A46C9B22D4B995422
:102E80002B4B1B785A1CD1B2294A11701A46BB88A9
:102E9000D9B2284B9954BB881B0A99B2244B1B7892
:102EA0005A1CD0B2224A10701A46C9B2214B99540A
:102EB0001F4B1B785A1CD1B21D4A117019461D4A6E
:102EC000FB7853541D4B1B78DBB2002B28D0184BDA
:102ED0001B7819461748FFF7D9FC194B1B785A1C69
:102EE000D1B2174A11701A46164B03219954144B4C
:102EF0001B78FB73124B1B785A1CD1B2104A11700D
:102F00001C46FB7B19460F48FFF764FC03461A4634
:102F10000C4B1A550C4B00221A70FFF77BFC02E099
:102F20000A4811F087FA00BF1437BD4690BD00BFB4
:102F3000040B002014080020D80A002020000020E4
:102F4000340B002060080020250A0020B05301083F
:102F500090B585B000AF0346FB710B46BB801346AE
:102F60007B800023FB73574B00221A70554B1B7854
:102F70005A1CD1B2534A11701A46534B022199542C
:102F8000504B1B785A1CD1B24E4A11701A464E4B08
:102F9000672199544B4B1B785A1CD1B2494A117086
:102FA0001A464A4B1978484B9954464B1B785A1C81
:102FB000D1B2444A11701A46434B00219954414BF7
:102FC0001B785A1CD1B23F4A11701A463E4B06215B
:102FD00099543C4B1B785A1CD1B23A4A11701A468C
:102FE000394B48219954374B1B785A1CD1B2354A7A
:102FF00011701946344AFB795354324B1B785A1CD2
:10300000D1B2304A11701A46BB88D9B22E4B9954AE
:10301000BB881B0A99B22B4B1B785A1CD0B2294A89
:1030200010701A46C9B2284B9954264B1B785A1C6B
:10303000D1B2244A11701A467B88D9B2224B9954D6
:103040007B881B0A99B21F4B1B785A1CD0B21D4AB1
:1030500010701A46C9B21C4B99541D4B1B78DBB239
:10306000002B28D0174B1B7819461748FFF70EFC8A
:10307000184B1B785A1CD1B2164A11701A46164BBF
:1030800003219954134B1B78FB73124B1B785A1C6A
:10309000D1B2104A11701C46FB7B19460E48FFF74F
:1030A00099FB03461A460C4B1A550C4B00221A701A
:1030B000FFF7B0FB02E00A4811F0BCF900BF14377B
:1030C000BD4690BD040B002014080020D80A002043
:1030D00020000020340B002060080020250A00207A
:1030E000C453010890B583B000AF0023FB71642383
:1030F000BB80674B1B687B80664B1B683B80664BC5
:1031000000221A70644B1B785A1CD1B2624A1170AB
:103110001A46624B022199545F4B1B785A1CD1B25C
:103120005D4A11701A465D4B672199545A4B1B78C2
:103130005A1CD1B2584A11701A46594B1978574B3C
:103140009954554B1B785A1CD1B2534A11701A46E8
:10315000524B00219954504B1B785A1CD1B24E4A05
:1031600011701A464D4B082199544B4B1B785A1C31
:10317000D1B2494A11701A46484B56219954464BD0
:103180001B785A1CD1B2444A11701A46444B5978E4
:10319000424B9954404B1B785A1CD1B23E4A117095
:1031A0001A46BB88D9B23D4B9954BB881B0A99B2C9
:1031B000394B1B785A1CD0B2374A10701A46C9B224
:1031C000364B9954344B1B785A1CD1B2324A117089
:1031D0001A467B88D9B2314B99547B881B0A99B225
:1031E0002D4B1B785A1CD0B22B4A10701A46C9B20C
:1031F0002A4B9954284B1B785A1CD1B2264A11707D
:103200001A463B88D9B2254B99543B881B0A99B280
:10321000214B1B785A1CD0B21F4A10701A46C9B2F3
:103220001E4B99541F4B1B78DBB2002B28D01A4B36
:103230001B7819461948FFF729FB1B4B1B785A1CB2
:10324000D1B2194A11701A46184B03219954164BE2
:103250001B78FB71144B1B785A1CD1B2124A1170A7
:103260001C46FB7919461148FFF7B4FA03461A4683
:103270000E4B1A550E4B00221A70FFF7CBFA02E0E4
:103280000C4811F0D7F800BF0C37BD4690BD00BF09
:10329000640B0020680B0020040B002014080020A1
:1032A000D80A002020000020340B002060080020F5
:1032B000250A0020D853010890B583B000AF002341
:1032C000FB71504B00221A704E4B1B785A1CD1B226
:1032D0004C4A11701A464C4B02219954494B1B78A9
:1032E0005A1CD1B2474A11701A46474B672199546C
:1032F000444B1B785A1CD1B2424A11701A46434BB8
:103300001978414B99543F4B1B785A1CD1B23D4A16
:1033100011701A463C4B002199543A4B1B785A1CA9
:10332000D1B2384A11701A46374B05219954354BA2
:103330001B785A1CD1B2334A11701A46324B5321B2
:103340009954304B1B785A1CD1B22E4A11701A4630
:103350002F4B19782C4B99542A4B1B785A1CD1B2FD
:10336000284A11701A462B4B1978274B9954254B34
:103370001B785A1CD1B2234A11701A46264B197871
:10338000214B99541F4B1B785A1CD1B21D4A117006
:103390001A46224B19781C4B9954214B1B78DBB2EF
:1033A000002B28D0174B1B7819461748FFF76EFAE9
:1033B0001C4B1B785A1CD1B21A4A11701A461A4B70
:1033C00003219954174B1B78FB71164B1B785A1C21
:1033D000D1B2144A11701C46FB7919461248FFF706
:1033E000F9F903461A46104B1A55104B00221A7071
:1033F000FFF710FA02E00E4811F01CF800BF0C377E
:10340000BD4690BD040B002014080020D80A0020FF
:103410003C0B00201C0B00201C090020DC0A0020B3
:1034200020000020340B002060080020250A002026
:10343000EC53010890B583B000AF0023FB71504BF3
:1034400000221A704E4B1B785A1CD1B24C4A117094
:103450001A464C4B02219954494B1B785A1CD1B245
:10346000474A11701A46474B67219954444B1B78C1
:103470005A1CD1B2424A11701A46434B1978414B3B
:1034800099543F4B1B785A1CD1B23D4A11701A46D1
:103490003C4B002199543A4B1B785A1CD1B2384A04
:1034A00011701A46374B05219954354B1B785A1C1D
:1034B000D1B2334A11701A46324B45219954304BE0
:1034C0001B785A1CD1B22E4A11701A462F4B19780C
:1034D0002C4B99542A4B1B785A1CD1B2284A117094
:1034E0001A462B4B1978274B9954254B1B785A1C9D
:1034F000D1B2234A11701A46264B1978214B9954A0
:103500001F4B1B785A1CD1B21D4A11701A46224B10
:1035100019781C4B9954214B1B78DBB2002B28D017
:10352000174B1B7819461748FFF7B0F91C4B1B784F
:103530005A1CD1B21A4A11701A461A4B03219954D7
:10354000174B1B78FB71164B1B785A1CD1B2144ACF
:1035500011701C46FB7919461248FFF73BF90346E8
:103560001A46104B1A55104B00221A70FFF752F9E9
:1035700002E00E4810F05EFF00BF0C37BD4690BD64
:10358000040B002014080020D80A0020400B002063
:10359000380A0020380900202009002020000020DF
:1035A000340B002060080020250A00200054010888
:1035B00080B582B000AF434B1B78FB71424AFB7968
:1035C0001370424B1B781D2B78D8404B1B78002B77
:1035D0000ED1FB79022B0BD0FB79062B08D0FB799F
:1035E000152B05D01E220021394810F0EAFD65E0B8
:1035F000384B1B78002B12D0364B00221A70364BFA
:103600001A78314B1B789A4203D0344B01221A703E
:1036100002E0324B00221A7000F068F84EE0FB79AD
:10362000152B0BD1294B1B78002B07D12C4B1B786A
:10363000002B43D02B4B01221A703FE0FB79022B69
:1036400002D1224B00221A70204B1B78002B03D191
:10365000214AFB79137006E01F4B1A78FB7953401F
:10366000DAB21D4B1A70FB79032B02D1194B0122E0
:103670001A701D4B1B78002B0FD01B4B00221A70A9
:10368000124B1B785A1CD1B2104A11701A46FB79A2
:10369000403BD9B20E4B995410E0FB79102B03D16B
:1036A000114B01221A7009E0084B1B785A1CD1B249
:1036B000064A11701946064AFB7953540837BD462D
:1036C00080BD00BF140900202C0B00200B08002037
:1036D000E8080020C00000203F0800204408002027
:1036E000A80A00200A080020C100002090B58DB073
:1036F00002AFB44B1B78012B08D11521B248FFF75C
:1037000029F8B04B00221A7001F0FDB8002387F8A9
:1037100027300FE097F8272097F82730AB498A5CCD
:1037200007F128010B4403F8282C97F827300133C0
:1037300087F82730A64B1B7897F827209A42E9D3C1
:10374000BA78A44B1A70BA79A24B5A707B79453B70
:10375000112B01F2CC8001A252F823F0A53700080A
:10376000EF480008EF480008EF480008EF4800085D
:10377000EF480008EF480008AF3700081539000887
:10378000EF480008BB390008FD390008EF48000881
:103790003D420008BB47000841480008EF480008C8
:1037A0006D4800088C4B00221A7001F0ACB8BB7950
:1037B000002B27D1FB79002B0CD120218748FEF765
:1037C000FBFF002186480CF0B3FC4FF08043002241
:1037D0005A6397E020218148FEF7E0FFFB791A4603
:1037E00041F2883303FB02F37E4A82FB031252113B
:1037F000DB17D21A4FF080435A63002178480CF04F
:1038000085FB7FE0BB79012B1FD1FB79002B08D111
:10381000042173480CF08CFC4FF0804300229A6323
:1038200070E0FB791A4641F2883303FB02F36D4ADC
:1038300082FB03125211DB17D21A4FF080439A63B6
:10384000042167480CF062FB5CE0BB79022B1CD1C1
:10385000FB79002B0CD120216348FEF7ADFF4021FE
:103860006148FEF7A9FF80215F48FEF7A5FF49E008
:1038700020215D48FEF792FF40215B48FEF78EFF56
:1038800080215948FEF78AFF3CE0BB79032B22D107
:10389000FB79002B0FD14FF400515348FEF78CFFFA
:1038A0004FF480415048FEF787FF4FF400414E48E7
:1038B000FEF782FF26E04FF400514B48FEF76EFF03
:1038C0004FF480414848FEF769FF4FF400414648F5
:1038D000FEF764FF16E0BB79042B08D1FB79002BBF
:1038E00002D103F0EDFE0DE003F0DCFE0AE0BB794F
:1038F000052B07D1FB79002B02D103F009FF01E072
:1039000003F0F6FE334B5B7819464C20FFF716F8B0
:1039100000F0F9BFBB79002B38D1344B1B78002B5A
:1039200000F0EA87314B00221A70FA79304B1A7096
:103930003A7A2F4B5A707A7A2D4B9A70BA7A2C4B6E
:10394000DA702B4BDB780A2B02D9294B0A22DA706A
:1039500000233B620FE03B6A0B3307F1280213445C
:1039600013F8281C224A3B6A134404330A461A708F
:103970003B6A01333B621E4BDB781A463B6A93423B
:10398000E9DB1C4B4D221A7000F0B6BFBB79012B4E
:1039900040F0B287154B1B78002B00F0AD87134B1E
:1039A00000221A70FA79124B1A70134B00221A7007
:1039B000104B4D221A7000F09FBF0E4B4F221A7011
:1039C00000F0A1BF4408002000380140E8080020B2
:1039D0000B080020D80A00203E08002000080048FC
:1039E000740E00201F85EB51000C004809080020D0
:1039F00028090020A80A00206C0B0020984B5022B8
:103A00001A70BB79002B40F08880964B93F82020E9
:103A1000FB799A4200F07287FA79924B83F8202062
:103A2000914B1B78002B2BD08E4B93F82030012B21
:103A300003D18E4810F0FEFC22E08A4B93F8203030
:103A4000022B03D18A4810F0F5FC19E0854B93F85E
:103A50002030032B03D1874810F0ECFC10E0814BA1
:103A600093F82030042B03D1834810F0E3FC07E0E7
:103A70007C4B93F82030052B02D1804810F0DAFC03
:103A8000784B1A783B7A9A4213D03A7A754B1A706F
:103A9000744B1B781846FDF75BFC724B1B7818467D
:103AA000FDF7ACFC704B1B78002B02D0744810F073
:103AB000C1FC7A7A6B4B5A70BA7A6A4B9A70FA7A6E
:103AC000684BDA703A7B674B1A717A7B654B5A7197
:103AD000654B1B78002B00F011873B7A194669482B
:103AE00010F020FC7B7A1946674810F01BFCBB7A6B
:103AF0001946664810F016FCFB7A1946644810F027
:103B000011FC3B7B1946634810F00CFCFB7819460E
:103B1000614810F007FC00F0F1BEBB79012B52D1D7
:103B2000FA79504B9A713A7A4E4BDA717A7A4D4B58
:103B30001A72BA7A4B4B5A72FA7A4A4B9A723A7B99
:103B4000484BDA723A7A7B7A1344DAB2BB7A13447E
:103B5000DAB2FB7A1344DAB23B7B1344DAB2414B5C
:103B60001A737A7B3F4B5A73BA7B3E4B9A733E4B28
:103B70001B78002B00F0C2863A4B9B791946394BD3
:103B80001B7B1A46374B5B7B1846364B9B7B00935F
:103B90000346424810F0C6FB324BDB791946314BE5
:103BA0001B7A18462F4B5B7A1C462E4B9B7A1A4683
:103BB0002C4BDB7A0193009223460246384810F0E2
:103BC000B1FB00F09BBEBB79022B40F0DF82FA799B
:103BD000244BDA73234BDB7B002B40F062813B7A72
:103BE000002B40F0EF807B7A002B40F0EB801D4BE8
:103BF00000225A611B4B002283F82120294B1B789D
:103C0000DBB2022B09D0274B1B78DBB2032B04D08D
:103C1000244B1B78DBB2052B76D1224B01221A7084
:103C2000114B1B78002B02D01F4810F003FC1F4BD8
:103C300001221A701E4B1B78012B03D1012003F0C7
:103C400083FE61E01B4B1B78DBB2022B36D11A4B93
:103C50001B78DBB2002B31D0012003F075FE53E05E
:103C6000A80A0020600A0020A60A002014540108B7
:103C7000285401083C5401085054010860540108BC
:103C8000745401088C5401089C540108AC54010878
:103C9000BC540108CC540108DC540108F05401085C
:103CA000085501085609002028550108D20A0020AD
:103CB000A70A00209D0A0020540900209C4B0122E5
:103CC0001A709C4B1B781A469B4B1A60994B1A69C9
:103CD000994B1B68B2FBF3F30133984A1360954B81
:103CE00000221A61964B00221A70964B00221A701D
:103CF000954B00221A70954B00221A70944B0022AB
:103D00001A60944B01221A70934B1B78DBB2012B83
:103D10002ED1924B1B7803F00203DBB2002B47D16C
:103D20008F4B1B78DBB2022B04D08D4B1B78DBB2A0
:103D3000032B3DD1884B02221A707E4B93F8203022
:103D4000012B0AD1874B1B78DBB2002B05D0854BAA
:103D500000221A70FDF792FB2AE0834B1B78DBB23E
:103D6000002B25D0804B00221A70FDF787FB1FE047
:103D7000794B1B78DBB2022B1AD1784B1B7803F0FE
:103D80000203DBB2002B13D1754B1B78DBB2022B85
:103D900004D0734B1B78DBB2032B09D1734B1B7818
:103DA000DBB2002B04D0714B00221A70FDF766FBCA
:103DB0006F4B5B7819465020FEF7C0FD6D4B00221B
:103DC0001A705BE06C4B1B78DBB2002B39D16B4B6C
:103DD00000221A707B7A3A7A1146184603F01EFACE
:103DE0000246544B5A61534B5B6940F24552934231
:103DF00004D8504B40F246525A6108E04D4B5B6983
:103E0000B3F5805F03D34B4B40F6FF725A615C4BB6
:103E10001B78002B05D0474B5B691946594810F0B9
:103E200081FA594B1B78DBB2052B27D1564B032265
:103E30001A70534B1B78002B20D0544810F0FAFA1C
:103E40001CE04E4B1B780133DAB24C4B1A704B4BD3
:103E50001B78022B0FD9494B00221A70464B0022C7
:103E60001A70434B5B7819465020FEF767FD414BB3
:103E700000221A7002E03F4B00221A70424B1B785E
:103E8000DBB2022B40F07D81414B01221A70384B8E
:103E90005B7819465020FEF751FD364B00221A7010
:103EA0006FE1244BDB7B012B40F06B813B7A002BD5
:103EB00040F0FA807B7A002B40F0F6801D4B002208
:103EC000DA611C4B002283F82120254B1B78DBB2E2
:103ED000022B0AD0224B1B78DBB2032B05D0204BE0
:103EE0001B78DBB2052B40F081801D4B01221A703C
:103EF000234B1B78002B02D0264810F09BFA264B50
:103F000001221A70254B1B78012B03D1022003F0EC
:103F10001BFD6BE0104B1B78DBB2012B40D1114B2A
:103F20001B78DBB2002B3BD0022003F00DFD5DE0DF
:103F3000B10A0020600A0020280B0020A8080020F9
:103F4000AE0800200E080020D00A0020A70A00209A
:103F50004C090020110B00209D0A00203C0B002082
:103F60009C0A002054090020050B00201D0A002097
:103F7000D80A0020A80A0020D20A00203208002017
:103F8000A60A00203C550108560900205455010896
:103F9000890A00206C550108450B002023090020E8
:103FA000894B01221A70894B1B781A46884B1A607C
:103FB000864B9A69864B1B68B2FBF3F30133854A43
:103FC0001360824B00229A61834B00221A70834B4C
:103FD00000221A70824B00221A70824B00221A7043
:103FE000814B00221A60814B01221A70804B1B7892
:103FF000DBB2022B2ED17F4B1B7803F00103DBB227
:10400000002B47D17C4B1B78DBB2022B04D07A4BC0
:104010001B78DBB2032B3DD1754B01221A706B4B21
:1040200093F82030012B0AD1744B1B78DBB2002BA4
:1040300005D0724B00221A70FDF7CAF92AE0704BC6
:104040001B78DBB2002B25D06D4B00221A70FDF7D8
:10405000BFF91FE0664B1B78DBB2012B1AD1654B11
:104060001B7803F00103DBB2002B13D1624B1B78EA
:10407000DBB2022B04D0604B1B78DBB2032B09D1DF
:10408000604B1B78DBB2002B04D05E4B00221A7011
:10409000FDF79EF95C4B5B7819465020FEF74EFC0D
:1040A0005A4B00221A705BE0594B1B78DBB2002B95
:1040B00039D1584B00221A707B7A3A7A1146184649
:1040C00003F0ACF80246414BDA61404BDB6940F249
:1040D0004552934204D83D4B40F24652DA6108E023
:1040E0003A4BDB69B3F5805F03D3384B40F6FF7280
:1040F000DA61494B1B78002B05D0344BDB6919463C
:10410000464810F00FF9464B1B78DBB2052B27D140
:10411000434B03221A70404B1B78002B20D04148A0
:1041200010F088F91CE03B4B1B780133DAB2394BB5
:104130001A70384B1B78022B0FD9364B00221A709D
:10414000334B00221A70304B5B7819465020FEF733
:10415000F5FB2E4B00221A7002E02C4B00221A7045
:104160002F4B1B78DBB2022B0BD12F4B01221A7085
:10417000254B5B7819465020FEF7E0FB234B0022CD
:104180001A70BA7A114B83F82120B7E3BB79032B5D
:1041900040F0B483204B1B78002B00F0AF83FB79F9
:1041A000002B03D0214810F045F902E0204810F020
:1041B00041F93B7A002B03D01E4810F03BF99DE3F8
:1041C0001D4810F037F999E3F40A0020600A002036
:1041D000280B0020000B0020A40A00208C080020DF
:1041E000100B002023090020300B0020240A00209F
:1041F0009D0A00203C0B0020560900205409002095
:10420000050B00201D0A0020D80A0020A80A002063
:10421000450B00209E0A0020A60A002084550108B4
:104220009C0A00209C550108F60A0020B45501089C
:10423000C0550108D0550108DC550108974B5222A2
:104240001A70974B1B78002B02D00A2010F082F8CE
:10425000BB79002B03D0BB79012B40F0F180904B50
:104260001B78002B02D08F4810F0E4F88E4B1B789F
:10427000DAB28E4B1A708C4B00221A70884B1B7866
:10428000002B02D08A4810F0D5F88A4B1B78DAB29E
:10429000894B1A70874B00221A70814B1B78002BB8
:1042A00002D0864810F0C6F8854B1B78032B0DD141
:1042B000834B00221A70834B01221A7003F042FADA
:1042C000814B01221A7003F0A1FA8FE07C4B00228F
:1042D0001A707E4B1B781A467D4B1A60734B1B7805
:1042E000DBB2002B3ED0774B01221A706F4B1B784C
:1042F000DBB2012B04D06D4B1B78DBB2052B02D156
:1043000003F020FA2EE0734B1B78012B02D103F04F
:1043100019FA27E0704B1B78DBB2022B07D16F4BE9
:104320001B78DBB2002B02D003F00CFA1AE0674BCB
:104330001A69674B1B68B2FBF3F30133684A1360D9
:10434000684B00221A70684B00221A70674B0022DB
:104350001A70604B00221A70654B00221A60654B80
:1043600001221A70544B1B78DBB2002B3ED0564B07
:1043700001221A70504B1B78DBB2012B04D04E4B3C
:104380001B78DBB2052B02D103F040FA2EE05A4B2A
:104390001B78012B02D103F039FA27E04E4B1B7832
:1043A000DBB2012B07D14D4B1B78DBB2002B02D0C7
:1043B00003F02CFA1AE0454B9A69454B1B68B2FB97
:1043C000F3F301334D4A13604D4B00221A704D4BED
:1043D00000221A704C4B00221A70474B00221A70B0
:1043E0004A4B00221A604A4B01221A70374B0022B6
:1043F0009A71364B0022DA71344B00221A72334B19
:1044000000225A72314B00229A72304B0022DA722B
:104410002E4B00221A732D4B00225A732B4B002275
:104420009A732A4B00221A61284B00225A61274BAB
:1044300000229A61254B0022DA6103F04BFAB5E1C4
:10444000BB79022B6ED1164B1B78002B02D0314862
:104450000FF0F0FF304B1B7803F00103DBB2002BB1
:1044600008D11A4B1B781846FCF772FF00212B4825
:104470000BF04CFD284B1B7803F00203DBB2002B42
:1044800008D1124B1B781846FCF7B8FF00212448CE
:104490000BF03CFD0A4B02221A7087E1A80A0020AB
:1044A000A60A0020EC550108560900208B0A0020BE
:1044B000FC5501089C0A0020D10A00201056010872
:1044C0003D080020D20A0020450B0020600A002091
:1044D000280B0020A70A00209D0A00205409002074
:1044E000A8080020AE0800200E080020D00A0020F6
:1044F0004C090020110B002023090020000B002094
:10450000A40A00208C080020100B0020300B002093
:10451000240A0020245601083C0B00209C0D00209A
:10452000C00B0020BB79032B40F04081A54B1B78CA
:10453000002B02D0A4480FF07DFFA44B03221A7079
:10454000A34B1B781A46A34B1A60A34B1B78DBB214
:10455000052B00F08580A04B1B78DBB2002B7FD0B1
:104560009B4B5B69002B7BD09C4B1B78DBB2012BF8
:104570000CD1994B1B78DBB2022B07D1984B1B78DF
:10458000DBB2002B02D0974B01221A70924B1B78A2
:10459000DAB2924B1A70904B05221A70894B1B7835
:1045A000002B02D090480FF045FF8C4B1B78DBB2FC
:1045B000012B03D1012003F09BFA51E08B4B1B78B8
:1045C000012B03D1012003F093FA49E0884B1B78BB
:1045D000DBB2022B10D1814B1B78DBB2022B0BD14B
:1045E0007F4B1B78DBB2002B06D07D4B00221A706C
:1045F000012003F07DFA33E0754B1B6940F246520F
:1046000093420BD9724B1B69A3F24652714B1B6844
:10461000B2FBF3F30133774A136002E0754B0022DB
:104620001A606E4B1B78DBB2012B03D1684B002262
:104630001A6103E0664B40F246521A616E4B00224B
:104640001A706E4B00221A706D4B00221A70674B65
:1046500000221A706B4B00221A606B4B01221A70F9
:104660006A4B1B78DBB2052B00F08580674B1B780B
:10467000DBB2002B7FD0564BDB69002B7BD0644B29
:104680001B78DBB2012B0CD1604B1B78DBB2022B09
:1046900007D1534B1B78DBB2002B02D05D4B0122BC
:1046A0001A705A4B1B78DAB2594B1A70574B0522C5
:1046B0001A70444B1B78002B02D057480FF0BAFEFB
:1046C000534B1B78DBB2012B03D1022003F010FA0D
:1046D00051E0524B1B78012B03D1022003F008FA62
:1046E00049E0434B1B78DBB2012B10D1484B1B78C0
:1046F000DBB2022B0BD13A4B1B78DBB2002B06D07E
:10470000374B00221A70022003F0F2F933E0304BED
:104710009B6940F2465293420BD92D4B9B69A3F201
:1047200046522C4B1B68B2FBF3F301333C4A136037
:1047300002E03B4B00221A60354B1B78DBB2012BA9
:1047400003D1234B00229A6103E0214B40F24652F1
:104750009A61344B00221A70334B00221A70334B8B
:1047600000221A702D4B00221A70314B00221A6061
:10477000304B01221A70164B00229A71144B002202
:10478000DA71134B00221A72114B00225A72104B2D
:1047900000229A720E4B0022DA720D4B00221A731D
:1047A0000B4B00225A730A4B00229A73224B5B7800
:1047B00019465220FEF7C2F8A5E0204B00221A70DD
:1047C000A1E000BFA60A0020345601083D080020E1
:1047D000600A0020280B0020560900208B0A0020C8
:1047E000050B00200709002044560108A70A0020F5
:1047F0009D0A0020A8080020AE0800200E08002016
:10480000D00A00204C090020110B00209C0A002037
:10481000D10A00203C080020585601082309002036
:10482000000B0020A40A00208C080020100B0020A0
:10483000300B0020240A0020D80A0020E4080020C1
:10484000334B54221A70334B1B78002B06D0314B5C
:104850001B78013BDAB22F4B1A7051E02D4B1B78BD
:10486000002B4DD12C4B00221A7049E0284B5622C8
:104870001A702A4B1B780133DAB2284B1A70274B77
:104880001B78022B3ED9264B40F2E7321A60254BAB
:1048900040F2E7321A60FEF725FC204B00221A7026
:1048A0001F4B00221A601F4B00221A601E4B1B7800
:1048B000002B02D01D480FF0BDFD10211C48FDF754
:1048C00058FF0346002B1DD01A4B1B68012B04D147
:1048D000194A137843F040031370184B1B68012BDF
:1048E00010D1154A137843F0800313700AE0084B87
:1048F0005A221A7000BF06E000BF04E000BF02E0C9
:1049000000BF00E000BF00BF2C37BD4690BD00BF18
:10491000A80A0020410B00200F08002010080020EA
:10492000640B0020680B0020A60A00206C560108CA
:1049300000040048480B0020400B00205C0A0020C7
:1049400080B500AF094B00221A70094B1B781A463C
:1049500003210848FDF7C8FE0748FDF7EBFE0321D9
:104960000448FDF77DFE00BF80BD00BF2100002090
:10497000180B0020000002400048004080B500AF46
:1049800003210948FDF78EFE1422002107480FF08D
:1049900018FC1422002106480FF013FC054B0122DD
:1049A0001A7000BF80BD00BF00000240400A002016
:1049B000E00A00202100002080B485B000AF7860BC
:1049C00039600023FB730023BB733AE0BB7B7A683A
:1049D00013441B78022B0BD0BB7B7A6813441B78E3
:1049E000032B05D0BB7B7A6813441B78102B1BD19B
:1049F000BB7B012B10D9FB7B194A1021D154FB7BC7
:104A00000133FB73BB7B7A6813441A78FB7B40321B
:104A1000D1B2134AD1540EE0BB7B7A681A44FB7BB7
:104A200011780F4AD15406E0BB7B7A681A44FB7BAD
:104A300011780B4AD154BB7B0133BB73FB7B013331
:104A4000FB733B685A1E3A60002BBFD1054AFB7BC3
:104A5000137000BF1437BD465DF8047B704700BF7C
:104A6000400A0020180B002090B585B000AF034627
:104A7000FB710023FB73304B00221A702E4B1B7806
:104A80005A1CD1B22C4A11701A462C4B022199544F
:104A9000294B1B785A1CD1B2274A11701A46274B52
:104AA00070219954244B1B785A1CD1B2224A1170A0
:104AB0001A46224B012199541F4B1B785A1CD1B224
:104AC0001D4A117019461D4AFB7953541C4B1B7823
:104AD000DBB2002B28D0184B1B7819461748FFF77C
:104AE0006BFF184B1B785A1CD1B2164A11701A462C
:104AF000154B03219954134B1B78FB73114B1B78F7
:104B00005A1CD1B20F4A11701C46FB7B19460E4845
:104B1000FDF760FE03461A460B4B1A550B4B00225D
:104B20001A70FFF70DFF02E009480FF083FC00BF89
:104B30001437BD4690BD00BFAD080020E00A00203C
:104B400021000020180B0020400A00208D0A0020C0
:104B50009056010880B582B000AF434B1B78FB71C3
:104B6000424AFB791370424B1B78132B78D8404B89
:104B70001B78002B0ED1FB79022B0BD0FB79062B77
:104B800008D0FB79152B05D01422002139480FF0ED
:104B900018FB65E0384B1B78002B12D0364B0022F7
:104BA0001A70364B1A78314B1B789A4203D0344B2B
:104BB00001221A7002E0324B00221A7000F068F8ED
:104BC0004EE0FB79152B0BD1294B1B78002B07D11D
:104BD0002C4B1B78002B43D02B4B01221A703FE04B
:104BE000FB79022B02D1224B00221A70204B1B783A
:104BF000002B03D1214AFB79137006E01F4B1A7872
:104C0000FB795340DAB21D4B1A70FB79032B02D1AA
:104C1000194B01221A701D4B1B78002B0FD01B4B18
:104C200000221A70124B1B785A1CD1B2104A117014
:104C30001A46FB79403BD9B20E4B995410E0FB79F0
:104C4000102B03D1114B01221A7009E0084B1B787D
:104C50005A1CD1B2064A11701946064AFB795354C0
:104C60000837BD4680BD00BF3C0A0020B30A0020C3
:104C70003D0A00204C0B0020C2000020240B002025
:104C800055090020DA0A002011090020C300002085
:104C900080B500AF134B1B78002B14D1124BDB787F
:104CA000532B0CD0562B02D0452B04D00CE00F4BCD
:104CB00056221A7008E00D4B45221A7004E00B4B87
:104CC00053221A7000E000BF064B1B78012B06D15F
:104CD00015210748FDF73EFD024B00221A7000BF68
:104CE00080BD00BF550900204C0B0020DA0A0020CF
:104CF0000048004080B500AF094B00221A70094BF4
:104D00001B781A4605210848FDF7EEFC0748FDF719
:104D100011FD05210448FDF7A3FC00BF80BD00BFC5
:104D20002200002006090020000002400050004040
:104D300080B500AF05210948FDF7B4FC142200211D
:104D400007480FF03EFA1422002106480FF039FA06
:104D5000054B01221A7000BF80BD00BF0000024059
:104D600048080020B40A00202200002080B485B04A
:104D700000AF786039600023FB730023BB733AE017
:104D8000BB7B7A6813441B78022B0BD0BB7B7A6801
:104D900013441B78032B05D0BB7B7A6813441B7824
:104DA000102B1BD1BB7B012B10D9FB7B194A102187
:104DB000D154FB7B0133FB73BB7B7A6813441A78B5
:104DC000FB7B4032D1B2134AD1540EE0BB7B7A68F0
:104DD0001A44FB7B11780F4AD15406E0BB7B7A68FA
:104DE0001A44FB7B11780B4AD154BB7B0133BB7354
:104DF000FB7B0133FB733B685A1E3A60002BBFD12B
:104E0000054AFB7B137000BF1437BD465DF8047B79
:104E1000704700BF480800200609002090B585B003
:104E200000AF0346FB710023FB73304B00221A7066
:104E30002E4B1B785A1CD1B22C4A11701A462C4B9F
:104E400002219954294B1B785A1CD1B2274A117060
:104E50001A46274B70219954244B1B785A1CD1B207
:104E6000224A11701A46224B012199541F4B1B787C
:104E70005A1CD1B21D4A117019461D4AFB79535470
:104E80001C4B1B78DBB2002B28D0184B1B78194623
:104E90001748FFF76BFF184B1B785A1CD1B2164A04
:104EA00011701A46154B03219954134B1B78FB7351
:104EB000114B1B785A1CD1B20F4A11701C46FB7B58
:104EC00019460E48FDF786FC03461A460B4B1A5549
:104ED0000B4B00221A70FFF70DFF02E009480FF09C
:104EE000A9FA00BF1437BD4690BD00BFFD0A0020DF
:104EF000B40A0020220000200609002048080020F3
:104F0000350B0020B856010880B582B000AF434B86
:104F10001B78FB71424AFB791370424B1B78132BB1
:104F200078D8404B1B78002B0ED1FB79022B0BD08D
:104F3000FB79062B08D0FB79152B05D01422002114
:104F400039480FF03EF965E0384B1B78002B12D042
:104F5000364B00221A70364B1A78314B1B789A4226
:104F600003D0344B01221A7002E0324B00221A7037
:104F700000F068F84EE0FB79152B0BD1294B1B781C
:104F8000002B07D12C4B1B78002B43D02B4B01223D
:104F90001A703FE0FB79022B02D1224B00221A70DB
:104FA000204B1B78002B03D1214AFB79137006E0BC
:104FB0001F4B1A78FB795340DAB21D4B1A70FB79FC
:104FC000032B02D1194B01221A701D4B1B78002BA9
:104FD0000FD01B4B00221A70124B1B785A1CD1B2F7
:104FE000104A11701A46FB79403BD9B20E4B9954C6
:104FF00010E0FB79102B03D1114B01221A7009E04C
:10500000084B1B785A1CD1B2064A11701946064A41
:10501000FB7953540837BD4680BD00BF1C0A0020F1
:105020006D0B00202509002090080020C4000020FE
:1050300040090020DD0A0020210900202409002069
:10504000C500002080B500AF134B1B78002B14D196
:10505000124BDB78532B0CD0562B02D0452B04D0AF
:105060000CE00F4B56221A7008E00D4B45221A70C7
:1050700004E00B4B53221A7000E000BF064B1B7874
:10508000012B06D115210748FDF764FB024B0022D6
:105090001A7000BF80BD00BFDD0A0020900800200C
:1050A000210900200050004080B489B000AF786032
:1050B00039600023FB6130E0FB699B003A681A44C9
:1050C000FB699B0079680B4412781A70FB699B009E
:1050D00001333A681A44FB699B00013379680B4439
:1050E00012781A70FB699B0002333A681A44FB6914
:1050F0009B00023379680B4412781A70FB699B009D
:1051000003333A681A44FB699B00033379680B4404
:1051100012781A70FB690133FB61FB69032BCBD951
:105120000423FB6185E0FB6903F18043013B9B00A5
:10513000BB617A68BB6913441B783B73BB6901335D
:105140007A6813441B787B73BB6902337A68134413
:105150001B78BB73BB6903337A6813441B78FB73FA
:10516000FB6903F00303002B25D13B7BFB757B7BA5
:105170003B73BB7B7B73FB7BBB73FB7DFB733B7B1D
:105180001A46314B9B5C3B737B7B1A462E4B9B5CD8
:105190007B73BB7B1A462C4B9B5CBB73FB7B1A4619
:1051A000294B9B5CFB733A7BFB699B082749CB5CD3
:1051B0005340DBB23B73FB699B003B61FB6903F12E
:1051C0008043043B9B00BB617A68BB691344197838
:1051D0003A7B78683B6903444A40D2B21A70BB6993
:1051E00001337A68134419787A7B3B690133786814
:1051F00003444A40D2B21A70BB6902337A6813443E
:105200001978BA7B3B690233786803444A40D2B2CA
:105210001A70BB6903337A6813441978FA7B3B69C7
:105220000333786803444A40D2B21A70FB690133F1
:10523000FB61FB692B2B7FF676AF00BF2437BD46A1
:105240005DF8047B704700BF185E01081860010814
:1052500080B584B000AFF860B9607A60FB68B96867
:105260001846FFF721FFFB68B03310227968184613
:105270000EF09CFF00BF1037BD4680BD80B487B0E4
:1052800000AF0346B9607A60FB730023FB7527E02B
:105290000023BB751EE0FA7DBB7DB96892000A440D
:1052A00013441878FB7B9A00FB7D13449A00BB7D66
:1052B00013441A467B6813441978FA7DBB7D41403C
:1052C000C8B2B96892000A44134402461A70BB7D02
:1052D0000133BB75BB7D032BDDD9FB7D0133FB7532
:1052E000FB7D032BD4D900BF1C37BD465DF8047B82
:1052F000704780B487B000AFB9607A603B60034606
:10530000FB730023FB7527E00023BB751EE0FA7DCD
:10531000BB7DB96892000A4413441878FB7B9A005D
:10532000FB7D13449A00BB7D13441A463B6813442B
:105330001978FA7DBB7D4140C8B2796892000A4471
:10534000134402461A70BB7D0133BB75BB7D032B32
:10535000DDD9FB7D0133FB75FB7D032BD4D900BF69
:105360001C37BD465DF8047B7047000080B485B0F3
:1053700000AF78600023FB731DE00023BB7314E0D3
:10538000BA7BFB7B796892000A4413441B78184669
:10539000BA7BFB7B0C49085C796892000A44134491
:1053A00002461A70BB7B0133BB73BB7B032BE7D96F
:1053B000FB7B0133FB73FB7B032BDED900BF143770
:1053C000BD465DF8047B7047185E010880B485B067
:1053D00000AF78607B685B78FB737B685A797B6889
:1053E0005A707B685A7A7B685A717B685A7B7B68F3
:1053F0005A727B68FA7B5A737B689B78FB737B6875
:105400009A7A7B689A707B68FA7B9A727B689B7940
:10541000FB737B689A7B7B689A717B68FA7B9A73D3
:105420007B68DB78FB737B68DA7B7B68DA707B6890
:10543000DA7A7B68DA737B68DA797B68DA727B68A0
:10544000FA7BDA7100BF1437BD465DF8047B704704
:1054500080B483B000AF0346FB71FB795B005AB2A6
:10546000FB79DB09DBB2194649000B441946C80039
:10547000194603460B44DBB25BB253405BB2DBB26E
:1054800018460C37BD465DF8047B704780B584B084
:1054900000AF78600023FB73A4E0FA7B7B6813F80D
:1054A0002230BB73FA7B7B6813F82220FB7B796880
:1054B0009B000B445B785340DAB2FB7B79689B001E
:1054C0000B449B785340DAB2FB7B79689B000B441A
:1054D000DB7853407B73FA7B7B6813F82220FB7BDD
:1054E00079689B000B445B7853403B733B7B1846C9
:1054F000FFF7AEFF03463B73FA7B7B6813F822107D
:105500003A7B7B7B5340DBB2FA7B4B40D9B27B6862
:1055100003F82210FB7B7A689B0013445A78FB7BCC
:1055200079689B000B449B7853403B733B7B184648
:10553000FFF78EFF03463B73FB7B7A689B001344A7
:1055400059783A7B7B7B5340DAB2FB7B4A40D1B23D
:105550007A689B0013440A465A70FB7B7A689B006A
:1055600013449A78FB7B79689B000B44DB785340AB
:105570003B733B7B1846FFF76BFF03463B73FB7B9C
:105580007A689B00134499783A7B7B7B5340DAB26C
:10559000FB7B4A40D1B27A689B0013440A469A705A
:1055A000FB7B7A689B001344DA78BB7B53403B73E8
:1055B0003B7B1846FFF74CFF03463B73FB7B7A6847
:1055C0009B001344D9783A7B7B7B5340DAB2FB7B58
:1055D0004A40D1B27A689B0013440A46DA70FB7BDA
:1055E0000133FB73FB7B032B7FF657AF00BF1037F4
:1055F000BD4680BDB0B584B000AF78600023FB60CD
:105600003BE37B68FA6813F82230FB727A68FB6828
:105610009B0013445B78BB727A68FB689B00134461
:105620009B787B727A68FB689B001344DB783B7243
:10563000FB7A1846FFF70CFF03461846FFF708FFF2
:1056400003461846FFF704FF03461846FFF700FF1E
:10565000BB7A1846FFF7FCFE03461846FFF7F8FE34
:10566000BB7A1846FFF7F4FE03461846FFF7F0FE34
:1056700003461846FFF7ECFE03461846FFF7E8FE20
:105680007B7A1846FFF7E4FE7B7A1846FFF7E0FEC8
:1056900003461846FFF7DCFE03461846FFF7D8FE20
:1056A00003461846FFF7D4FE3B7A1846FFF7D0FEB4
:1056B0003B7A1846FFF7CCFE03461846FFF7C8FEB4
:1056C0003B7A1846FFF7C4FE03461846FFF7C0FEB4
:1056D00003461846FFF7BCFE03461846FFF7B8FE20
:1056E000FB7A1846FFF7B4FE03461C46FB7A1846C1
:1056F000FFF7AEFE03461846FFF7AAFE03466340D7
:10570000DCB2FB7A1846FFF7A3FE03461846FFF704
:105710009FFE03461846FFF79BFE03466340DCB23C
:10572000BB7A1846FFF794FE03461A46BB7A5340ED
:10573000DDB2BB7A1846FFF78BFE03461846FFF72B
:1057400087FE03461846FFF783FE03466B40DBB235
:105750006340DCB27B7A1846FFF77AFE03461846B0
:10576000FFF776FE03461A467B7A5340DDB27B7A1A
:105770001846FFF76DFE03461846FFF769FE03461D
:105780001846FFF765FE03466B40DBB26340DCB2B0
:105790003B7A1846FFF75CFE03461846FFF758FEB3
:1057A00003461846FFF754FE03461A463B7A534019
:1057B000DBB26340D9B27B68FA6803F82210FB7A47
:1057C0001846FFF745FEFB7A1846FFF741FE0346F1
:1057D0001846FFF73DFEFB7A1846FFF739FE0346F1
:1057E0001846FFF735FE03461846FFF731FE03461D
:1057F0001846FFF72DFEBB7A1846FFF729FE034631
:105800001846FFF725FE03461846FFF721FE03461C
:105810001846FFF71DFE7B7A1846FFF719FE034670
:105820001846FFF715FE7B7A1846FFF711FE034670
:105830001846FFF70DFE03461846FFF709FE03461C
:105840001846FFF705FE3B7A1846FFF701FE3B7A44
:105850001846FFF7FDFD03461846FFF7F9FD03461E
:105860001846FFF7F5FD03461846FFF7F1FDFB7AF2
:105870001846FFF7EDFD03461846FFF7E9FD03461E
:105880001846FFF7E5FD03461A46FB7A5340DCB2A3
:10589000BB7A1846FFF7DCFD03461D46BB7A184667
:1058A000FFF7D6FD03461846FFF7D2FD03466B40CF
:1058B000DDB2BB7A1846FFF7CBFD03461846FFF76B
:1058C000C7FD03461846FFF7C3FD03466B40DBB236
:1058D0006340DCB27B7A1846FFF7BAFD03461A46EE
:1058E0007B7A5340DDB27B7A1846FFF7B1FD034661
:1058F0001846FFF7ADFD03461846FFF7A9FD03461E
:105900006B40DBB26340DCB23B7A1846FFF7A0FD88
:1059100003461846FFF79CFD03461A463B7A534060
:10592000DDB23B7A1846FFF793FD03461846FFF7B2
:105930008FFD03461846FFF78BFD03466B40DBB235
:105940006340D9B27A68FB689B0013440A465A70D8
:10595000FB7A1846FFF77CFDFB7A1846FFF778FDC7
:1059600003461846FFF774FD03461846FFF770FD1F
:1059700003461846FFF76CFDBB7A1846FFF768FD33
:10598000BB7A1846FFF764FD03461846FFF760FD33
:10599000BB7A1846FFF75CFD03461846FFF758FD33
:1059A00003461846FFF754FD03461846FFF750FD1F
:1059B0007B7A1846FFF74CFD03461846FFF748FD73
:1059C00003461846FFF744FD03461846FFF740FD1F
:1059D0003B7A1846FFF73CFD03461846FFF738FDB3
:1059E0003B7A1846FFF734FD03461846FFF730FDB3
:1059F00003461846FFF72CFD03461846FFF728FD1F
:105A0000FB7A1846FFF724FD03461846FFF720FDF2
:105A100003461A46FB7A5340DCB2FB7A1846FFF77E
:105A200017FD03461846FFF713FD03461846FFF718
:105A30000FFD03466340DCB2BB7A1846FFF708FD52
:105A400003461846FFF704FD03461846FFF700FD1E
:105A500003461A46BB7A5340DBB26340DCB27B7A22
:105A60001846FFF7F5FC03461D467B7A1846FFF7FC
:105A7000EFFC03461846FFF7EBFC03466B40DDB234
:105A80007B7A1846FFF7E4FC03461846FFF7E0FC74
:105A900003461846FFF7DCFC03466B40DBB263406D
:105AA000DCB23B7A1846FFF7D3FC03461A463B7A32
:105AB0005340DDB23B7A1846FFF7CAFC034618464E
:105AC000FFF7C6FC03461846FFF7C2FC03466B40CF
:105AD000DBB26340D9B27A68FB689B0013440A4684
